{
  "contractName": "CarExchangeInterface",
  "abi": [
    {
      "constant": true,
      "inputs": [
        {
          "name": "",
          "type": "uint256"
        }
      ],
      "name": "vNum",
      "outputs": [
        {
          "name": "",
          "type": "uint256"
        }
      ],
      "payable": false,
      "stateMutability": "view",
      "type": "function",
      "signature": "0x46891b2f"
    },
    {
      "constant": true,
      "inputs": [
        {
          "name": "",
          "type": "uint256"
        }
      ],
      "name": "buyBook",
      "outputs": [
        {
          "name": "New_Owner",
          "type": "address"
        },
        {
          "name": "Old_Owner",
          "type": "address"
        },
        {
          "name": "Value",
          "type": "uint256"
        }
      ],
      "payable": false,
      "stateMutability": "view",
      "type": "function",
      "signature": "0x6ee26566"
    },
    {
      "constant": true,
      "inputs": [
        {
          "name": "",
          "type": "uint256"
        }
      ],
      "name": "cars",
      "outputs": [
        {
          "name": "_CVinNumber",
          "type": "uint256"
        },
        {
          "name": "_Cowner",
          "type": "address"
        }
      ],
      "payable": false,
      "stateMutability": "view",
      "type": "function",
      "signature": "0xf7746e36"
    },
    {
      "anonymous": false,
      "inputs": [
        {
          "indexed": false,
          "name": "indexed_owner",
          "type": "address"
        },
        {
          "indexed": false,
          "name": "indexed_VinNumber",
          "type": "uint256"
        }
      ],
      "name": "Registered",
      "type": "event",
      "signature": "0x6f3bf3fa84e4763a43b3d23f9d79be242d6d5c834941ff4c1111b67469e1150c"
    },
    {
      "anonymous": false,
      "inputs": [
        {
          "indexed": false,
          "name": "indexedOld_owner",
          "type": "address"
        },
        {
          "indexed": false,
          "name": "indexed_VinNumber",
          "type": "uint256"
        },
        {
          "indexed": false,
          "name": "indexedNew_owner",
          "type": "address"
        },
        {
          "indexed": false,
          "name": "Indexd_Value",
          "type": "uint256"
        }
      ],
      "name": "BOught",
      "type": "event",
      "signature": "0x40f560582a797319881fd348ced532f005bce9a0cb9e08d19c74e74ab3899055"
    },
    {
      "constant": false,
      "inputs": [
        {
          "name": "_owner",
          "type": "address"
        },
        {
          "name": "_VinNumber",
          "type": "uint256"
        }
      ],
      "name": "register",
      "outputs": [
        {
          "name": "added",
          "type": "bool"
        }
      ],
      "payable": false,
      "stateMutability": "nonpayable",
      "type": "function",
      "signature": "0x6d705ebb"
    },
    {
      "constant": false,
      "inputs": [
        {
          "name": "_VinNumber",
          "type": "uint256"
        },
        {
          "name": "Value",
          "type": "uint256"
        }
      ],
      "name": "List",
      "outputs": [
        {
          "name": "added",
          "type": "bool"
        }
      ],
      "payable": false,
      "stateMutability": "nonpayable",
      "type": "function",
      "signature": "0xc38e7832"
    },
    {
      "constant": false,
      "inputs": [
        {
          "name": "_VinNumber",
          "type": "uint256"
        },
        {
          "name": "Value",
          "type": "uint256"
        },
        {
          "name": "_owner",
          "type": "address"
        }
      ],
      "name": "Buy",
      "outputs": [
        {
          "name": "added",
          "type": "bool"
        }
      ],
      "payable": false,
      "stateMutability": "nonpayable",
      "type": "function",
      "signature": "0xf7735c8c"
    },
    {
      "constant": false,
      "inputs": [],
      "name": "getArray",
      "outputs": [
        {
          "name": "i",
          "type": "uint256"
        }
      ],
      "payable": false,
      "stateMutability": "nonpayable",
      "type": "function",
      "signature": "0xd504ea1d"
    },
    {
      "constant": false,
      "inputs": [
        {
          "name": "i",
          "type": "uint256"
        }
      ],
      "name": "getdata",
      "outputs": [
        {
          "name": "m",
          "type": "uint256"
        },
        {
          "name": "j",
          "type": "address"
        }
      ],
      "payable": false,
      "stateMutability": "nonpayable",
      "type": "function",
      "signature": "0x0ad2b739"
    }
  ],
  "bytecode": "0x6080604052600060055534801561001557600080fd5b50610b70806100256000396000f3fe60806040526004361061008e576000357c0100000000000000000000000000000000000000000000000000000000900463ffffffff1680630ad2b7391461009357806346891b2f146101155780636d705ebb146101645780636ee26566146101d7578063c38e78321461028c578063d504ea1d146102e9578063f7735c8c14610314578063f7746e3614610391575b600080fd5b34801561009f57600080fd5b506100cc600480360360208110156100b657600080fd5b8101908080359060200190929190505050610413565b604051808381526020018273ffffffffffffffffffffffffffffffffffffffff1673ffffffffffffffffffffffffffffffffffffffff1681526020019250505060405180910390f35b34801561012157600080fd5b5061014e6004803603602081101561013857600080fd5b8101908080359060200190929190505050610481565b6040518082815260200191505060405180910390f35b34801561017057600080fd5b506101bd6004803603604081101561018757600080fd5b81019080803573ffffffffffffffffffffffffffffffffffffffff169060200190929190803590602001909291905050506104a4565b604051808215151515815260200191505060405180910390f35b3480156101e357600080fd5b50610210600480360360208110156101fa57600080fd5b81019080803590602001909291905050506105f9565b604051808473ffffffffffffffffffffffffffffffffffffffff1673ffffffffffffffffffffffffffffffffffffffff1681526020018373ffffffffffffffffffffffffffffffffffffffff1673ffffffffffffffffffffffffffffffffffffffff168152602001828152602001935050505060405180910390f35b34801561029857600080fd5b506102cf600480360360408110156102af57600080fd5b810190808035906020019092919080359060200190929190505050610672565b604051808215151515815260200191505060405180910390f35b3480156102f557600080fd5b506102fe610696565b6040518082815260200191505060405180910390f35b34801561032057600080fd5b506103776004803603606081101561033757600080fd5b810190808035906020019092919080359060200190929190803573ffffffffffffffffffffffffffffffffffffffff1690602001909291905050506106a2565b604051808215151515815260200191505060405180910390f35b34801561039d57600080fd5b506103ca600480360360208110156103b457600080fd5b8101908080359060200190929190505050610a73565b604051808381526020018273ffffffffffffffffffffffffffffffffffffffff1673ffffffffffffffffffffffffffffffffffffffff1681526020019250505060405180910390f35b60008060008381548110151561042557fe5b90600052602060002090600202016000015460008481548110151561044657fe5b906000526020600020906002020160010160009054906101000a900473ffffffffffffffffffffffffffffffffffffffff1691509150915091565b60048181548110151561049057fe5b906000526020600020016000915090505481565b600060016005600082825401925050819055506104bf610ac6565b8281600001818152505083816020019073ffffffffffffffffffffffffffffffffffffffff16908173ffffffffffffffffffffffffffffffffffffffff1681525050600081908060018154018082558091505090600182039060005260206000209060020201600090919290919091506000820151816000015560208201518160010160006101000a81548173ffffffffffffffffffffffffffffffffffffffff021916908373ffffffffffffffffffffffffffffffffffffffff1602179055505050507f6f3bf3fa84e4763a43b3d23f9d79be242d6d5c834941ff4c1111b67469e1150c8484604051808373ffffffffffffffffffffffffffffffffffffffff1673ffffffffffffffffffffffffffffffffffffffff1681526020018281526020019250505060405180910390a1600191505092915050565b60028181548110151561060857fe5b90600052602060002090600302016000915090508060000160009054906101000a900473ffffffffffffffffffffffffffffffffffffffff16908060010160009054906101000a900473ffffffffffffffffffffffffffffffffffffffff16908060020154905083565b60008160036000858152602001908152602001600020819055506001905092915050565b60008080549050905090565b6000806001600086815260200190815260200160002060010160009054906101000a900473ffffffffffffffffffffffffffffffffffffffff1690506106e6610af6565b83816000019073ffffffffffffffffffffffffffffffffffffffff16908173ffffffffffffffffffffffffffffffffffffffff168152505081816020019073ffffffffffffffffffffffffffffffffffffffff16908173ffffffffffffffffffffffffffffffffffffffff1681525050848160400181815250506002819080600181540180825580915050906001820390600052602060002090600302016000909192909190915060008201518160000160006101000a81548173ffffffffffffffffffffffffffffffffffffffff021916908373ffffffffffffffffffffffffffffffffffffffff16021790555060208201518160010160006101000a81548173ffffffffffffffffffffffffffffffffffffffff021916908373ffffffffffffffffffffffffffffffffffffffff1602179055506040820151816002015550505060036000878152602001908152602001600020600090558360008781548110151561085057fe5b906000526020600020906002020160010160006101000a81548173ffffffffffffffffffffffffffffffffffffffff021916908373ffffffffffffffffffffffffffffffffffffffff16021790555060008090505b6000805490508110156109be57866000828154811015156108c257fe5b90600052602060002090600202016000015414801561094c57508273ffffffffffffffffffffffffffffffffffffffff1660008281548110151561090257fe5b906000526020600020906002020160010160009054906101000a900473ffffffffffffffffffffffffffffffffffffffff1673ffffffffffffffffffffffffffffffffffffffff16145b156109b1578460008281548110151561096157fe5b906000526020600020906002020160010160006101000a81548173ffffffffffffffffffffffffffffffffffffffff021916908373ffffffffffffffffffffffffffffffffffffffff1602179055505b80806001019150506108a5565b507f40f560582a797319881fd348ced532f005bce9a0cb9e08d19c74e74ab389905582878688604051808573ffffffffffffffffffffffffffffffffffffffff1673ffffffffffffffffffffffffffffffffffffffff1681526020018481526020018373ffffffffffffffffffffffffffffffffffffffff1673ffffffffffffffffffffffffffffffffffffffff16815260200182815260200194505050505060405180910390a16001925050509392505050565b600081815481101515610a8257fe5b90600052602060002090600202016000915090508060000154908060010160009054906101000a900473ffffffffffffffffffffffffffffffffffffffff16905082565b604080519081016040528060008152602001600073ffffffffffffffffffffffffffffffffffffffff1681525090565b606060405190810160405280600073ffffffffffffffffffffffffffffffffffffffff168152602001600073ffffffffffffffffffffffffffffffffffffffff16815260200160008152509056fea165627a7a72305820b733201b2e949514ab83fd77ad8f1507362f1436c6113d5bd774b192681693690029",
  "source": "pragma solidity ^0.5.0;\r\ncontract CarExchangeInterface{\r\n    struct   car{\r\n        uint256 _CVinNumber;\r\n        address _Cowner;\r\n    }\r\n car[] public cars;\r\n  mapping(uint256=>car) carreg;\r\n   struct BuyDone{\r\n       address New_Owner;\r\n       address Old_Owner;\r\n       uint256 Value;\r\n   }\r\n    BuyDone[] public buyBook;\r\n    mapping(uint256=>uint256) carSellList;\r\n    \r\n   \r\n    uint[] public vNum;\r\n    uint Totalcount=0;\r\n    event Registered(address indexed_owner,uint256 indexed_VinNumber);\r\n     event BOught(address indexedOld_owner,uint256 indexed_VinNumber,address indexedNew_owner,uint256 Indexd_Value);\r\n     \r\n     \r\n    function register(address _owner,uint256 _VinNumber) public returns (bool added)\r\n    {\r\n            Totalcount+=1;\r\n    car memory car1;\r\n    car1._CVinNumber=_VinNumber;\r\n    car1._Cowner=_owner;\r\n    cars.push(car1);\r\n   emit  Registered(_owner,_VinNumber);\r\n\r\n     return true;\r\n    }\r\n    \r\n    function List(uint256 _VinNumber,uint256 Value) public  returns (bool added)\r\n    {\r\n        \r\n        carSellList[_VinNumber]=Value;\r\n        return true;\r\n    }\r\n    function Buy(uint256 _VinNumber,uint256 Value,address _owner)public returns (bool added)\r\n    {\r\n           \r\n            address Last_Owner ;\r\n            Last_Owner=carreg[_VinNumber]._Cowner;\r\n          \r\n             BuyDone memory BuyDone1;\r\n            BuyDone1. New_Owner=_owner;\r\n            BuyDone1.Old_Owner=Last_Owner;\r\n            BuyDone1.Value=Value;\r\n            buyBook.push(BuyDone1);\r\n           delete carSellList[_VinNumber];\r\n           cars[_VinNumber]._Cowner=_owner;\r\n           for(uint256 i=0;i<cars.length;i++)\r\n           {\r\n               if (cars[i]._CVinNumber==_VinNumber&& cars[i]._Cowner==Last_Owner)\r\n               {\r\n                   cars[i]._Cowner=_owner;\r\n               }\r\n           }\r\n           emit  BOught(Last_Owner,_VinNumber,_owner,Value);\r\n        return true;\r\n    }\r\nfunction  getArray() public returns (uint256 i ) {\r\n      return cars.length;\r\n  }\r\n\r\n  \r\n   function getdata(uint256 i) public returns (uint256 m,address j ) {\r\n      return (cars[i]._CVinNumber,cars[i]._Cowner);\r\n  }\r\n   \r\n\r\n   \r\n   \r\n}",
  "sourcePath": "E:/samar/carsystem/empty/truffle/contracts/CarExchangeInterface.sol",
  "compiler": {
    "name": "solc",
    "version": "0.5.0+commit.1d4f565a.Emscripten.clang"
  },
  "schemaVersion": "3.0.2",
  "updatedAt": "2019-03-04T15:55:44.141Z",
  "devdoc": {
    "methods": {}
  },
  "userdoc": {
    "methods": {}
  }
}